{
  "contractName": "Election1",
  "abi": [
    {
      "inputs": [],
      "payable": false,
      "stateMutability": "nonpayable",
      "type": "constructor"
    },
    {
      "anonymous": false,
      "inputs": [
        {
          "indexed": true,
          "internalType": "uint256",
          "name": "_candidateId1",
          "type": "uint256"
        }
      ],
      "name": "revocatedEvent1",
      "type": "event"
    },
    {
      "anonymous": false,
      "inputs": [
        {
          "indexed": true,
          "internalType": "uint256",
          "name": "_candidateId1",
          "type": "uint256"
        }
      ],
      "name": "votedEvent1",
      "type": "event"
    },
    {
      "constant": true,
      "inputs": [
        {
          "internalType": "uint256",
          "name": "",
          "type": "uint256"
        }
      ],
      "name": "candidates1",
      "outputs": [
        {
          "internalType": "uint256",
          "name": "id1",
          "type": "uint256"
        },
        {
          "internalType": "string",
          "name": "name1",
          "type": "string"
        },
        {
          "internalType": "uint256",
          "name": "voteCount1",
          "type": "uint256"
        }
      ],
      "payable": false,
      "stateMutability": "view",
      "type": "function"
    },
    {
      "constant": true,
      "inputs": [],
      "name": "candidatesCount1",
      "outputs": [
        {
          "internalType": "uint256",
          "name": "",
          "type": "uint256"
        }
      ],
      "payable": false,
      "stateMutability": "view",
      "type": "function"
    },
    {
      "constant": true,
      "inputs": [
        {
          "internalType": "address",
          "name": "",
          "type": "address"
        }
      ],
      "name": "voterToCandidate1",
      "outputs": [
        {
          "internalType": "uint256",
          "name": "",
          "type": "uint256"
        }
      ],
      "payable": false,
      "stateMutability": "view",
      "type": "function"
    },
    {
      "constant": true,
      "inputs": [
        {
          "internalType": "address",
          "name": "",
          "type": "address"
        }
      ],
      "name": "voters1",
      "outputs": [
        {
          "internalType": "bool",
          "name": "",
          "type": "bool"
        }
      ],
      "payable": false,
      "stateMutability": "view",
      "type": "function"
    },
    {
      "constant": true,
      "inputs": [
        {
          "internalType": "address",
          "name": "",
          "type": "address"
        }
      ],
      "name": "whitelist",
      "outputs": [
        {
          "internalType": "bool",
          "name": "",
          "type": "bool"
        }
      ],
      "payable": false,
      "stateMutability": "view",
      "type": "function"
    },
    {
      "constant": false,
      "inputs": [
        {
          "internalType": "uint256",
          "name": "_candidateId1",
          "type": "uint256"
        }
      ],
      "name": "vote1",
      "outputs": [],
      "payable": false,
      "stateMutability": "nonpayable",
      "type": "function"
    },
    {
      "constant": false,
      "inputs": [],
      "name": "revokeVote1",
      "outputs": [],
      "payable": false,
      "stateMutability": "nonpayable",
      "type": "function"
    }
  ],
  "bytecode": "0x60806040523480156200001157600080fd5b50620000586040518060400160405280601b81526020017f47726f7570204131202d205468697320566f74696e672044617070000000000081525062001d4a60201b60201c565b6200009e6040518060400160405280601981526020017f47726f7570204132202d205661746963616e20566f74696e670000000000000081525062001d4a60201b60201c565b620000e46040518060400160405280601e81526020017f47726f75702042202d2053656c662d54616c6c79696e6720566f74696e67000081525062001d4a60201b60201c565b6200012a6040518060400160405280600e81526020017f47726f75702043202d2042594f4200000000000000000000000000000000000081525062001d4a60201b60201c565b620001706040518060400160405280601e81526020017f47726f75702045202d2046616972204c656164657220456c656374696f6e000081525062001d4a60201b60201c565b620001b66040518060400160405280601881526020017f47726f75702046202d20536d61727420436f6e7472616374000000000000000081525062001d4a60201b60201c565b620001e06040518060800160405280604281526020016200263b6042913962001d4a60201b60201c565b620002266040518060400160405280601481526020017f47726f75702048202d204e756c6c69666965727300000000000000000000000081525062001d4a60201b60201c565b6200026c6040518060400160405280601681526020017f47726f75702049202d20576173682054726164696e670000000000000000000081525062001d4a60201b60201c565b620002b26040518060400160405280600e81526020017f47726f7570204a202d2042594f4200000000000000000000000000000000000081525062001d4a60201b60201c565b620002f86040518060400160405280601881526020017f47726f7570204b202d20466f6c64696e672052656c617973000000000000000081525062001d4a60201b60201c565b6200033e6040518060400160405280600781526020017f47726f7570204c0000000000000000000000000000000000000000000000000081525062001d4a60201b60201c565b620003846040518060400160405280601c81526020017f47726f7570204d202d20506f6c69637920456e666f7263656d656e740000000081525062001d4a60201b60201c565b620003ca6040518060400160405280601c81526020017f47726f75702050202d20506f6c69637920456e666f7263656d656e740000000081525062001d4a60201b60201c565b620003f46040518060600160405280602181526020016200261a6021913962001d4a60201b60201c565b600160046000737b46ace25dcbfae5a634fe0091c810b0f514230573ffffffffffffffffffffffffffffffffffffffff1673ffffffffffffffffffffffffffffffffffffffff16815260200190815260200160002060006101000a81548160ff0219169083151502179055506001600460007348e731732dc403b2b8d74ffb12be90565186e68873ffffffffffffffffffffffffffffffffffffffff1673ffffffffffffffffffffffffffffffffffffffff16815260200190815260200160002060006101000a81548160ff02191690831515021790555060016004600073818254fa09c116494fba746e6d2da31e9652fc2073ffffffffffffffffffffffffffffffffffffffff1673ffffffffffffffffffffffffffffffffffffffff16815260200190815260200160002060006101000a81548160ff0219169083151502179055506001600460007305acf2cb75b4cb6e550a9bcedc39d45e867af49973ffffffffffffffffffffffffffffffffffffffff1673ffffffffffffffffffffffffffffffffffffffff16815260200190815260200160002060006101000a81548160ff02191690831515021790555060016004600073d24a9adaf18c1f75345a6f22a9cf57ecd9b460cd73ffffffffffffffffffffffffffffffffffffffff1673ffffffffffffffffffffffffffffffffffffffff16815260200190815260200160002060006101000a81548160ff021916908315150217905550600160046000733bd8e52ba4c157cf765cb90151cfd0dd3dce843973ffffffffffffffffffffffffffffffffffffffff1673ffffffffffffffffffffffffffffffffffffffff16815260200190815260200160002060006101000a81548160ff02191690831515021790555060016004600073e2799e51870c327b9cfadbf5faa19f240785f1c973ffffffffffffffffffffffffffffffffffffffff1673ffffffffffffffffffffffffffffffffffffffff16815260200190815260200160002060006101000a81548160ff02191690831515021790555060016004600073a8ae7d04271de45e706c37aa2c2ea1c38ade62aa73ffffffffffffffffffffffffffffffffffffffff1673ffffffffffffffffffffffffffffffffffffffff16815260200190815260200160002060006101000a81548160ff021916908315150217905550600160046000736473c0e100b830723902d43b6b9aa8628c58b4e473ffffffffffffffffffffffffffffffffffffffff1673ffffffffffffffffffffffffffffffffffffffff16815260200190815260200160002060006101000a81548160ff021916908315150217905550600160046000731a0a0959cb7782fd6e9a1f21294ec6fd689951c473ffffffffffffffffffffffffffffffffffffffff1673ffffffffffffffffffffffffffffffffffffffff16815260200190815260200160002060006101000a81548160ff02191690831515021790555060016004600073a3d4a87e6e685d4d6042b33eac295338d1e1b64f73ffffffffffffffffffffffffffffffffffffffff1673ffffffffffffffffffffffffffffffffffffffff16815260200190815260200160002060006101000a81548160ff0219169083151502179055506001600460007335d7c70211a2dbfe07f68b24fe5a1a75a69e233473ffffffffffffffffffffffffffffffffffffffff1673ffffffffffffffffffffffffffffffffffffffff16815260200190815260200160002060006101000a81548160ff0219169083151502179055506001600460007327382144bd98101b065044f7cb93e3d809066cf273ffffffffffffffffffffffffffffffffffffffff1673ffffffffffffffffffffffffffffffffffffffff16815260200190815260200160002060006101000a81548160ff021916908315150217905550600160046000737d18e332604d6e307ceb3be24aa3d28438cb145973ffffffffffffffffffffffffffffffffffffffff1673ffffffffffffffffffffffffffffffffffffffff16815260200190815260200160002060006101000a81548160ff02191690831515021790555060016004600073324f99a4a5465a87db6fbe0cc7431174036fc93c73ffffffffffffffffffffffffffffffffffffffff1673ffffffffffffffffffffffffffffffffffffffff16815260200190815260200160002060006101000a81548160ff021916908315150217905550600160046000735eab17cf56fe6ae21093fe793b7b39db5869acd973ffffffffffffffffffffffffffffffffffffffff1673ffffffffffffffffffffffffffffffffffffffff16815260200190815260200160002060006101000a81548160ff02191690831515021790555060016004600073555e410ebb474fd3e49020e93e5a1bc95c3c496b73ffffffffffffffffffffffffffffffffffffffff1673ffffffffffffffffffffffffffffffffffffffff16815260200190815260200160002060006101000a81548160ff021916908315150217905550600160046000733bcebdabae6356f7018d41e442f799840242df5373ffffffffffffffffffffffffffffffffffffffff1673ffffffffffffffffffffffffffffffffffffffff16815260200190815260200160002060006101000a81548160ff02191690831515021790555060016004600073bc759561e06832fdc239c924f92ef919be38ad1973ffffffffffffffffffffffffffffffffffffffff1673ffffffffffffffffffffffffffffffffffffffff16815260200190815260200160002060006101000a81548160ff021916908315150217905550600160046000737ce929d2695d53db3c7dafb93e5455c8111fcb7973ffffffffffffffffffffffffffffffffffffffff1673ffffffffffffffffffffffffffffffffffffffff16815260200190815260200160002060006101000a81548160ff02191690831515021790555060016004600073319dbe2b29591fdd4cabcfef699ce438cdf1eb3e73ffffffffffffffffffffffffffffffffffffffff1673ffffffffffffffffffffffffffffffffffffffff16815260200190815260200160002060006101000a81548160ff02191690831515021790555060016004600073a51a8fa9613e11eca2a2b9d4e1ab32325a1d69fc73ffffffffffffffffffffffffffffffffffffffff1673ffffffffffffffffffffffffffffffffffffffff16815260200190815260200160002060006101000a81548160ff02191690831515021790555060016004600073f05eb5588cab1cb86c60c30e71860e5969c88d0d73ffffffffffffffffffffffffffffffffffffffff1673ffffffffffffffffffffffffffffffffffffffff16815260200190815260200160002060006101000a81548160ff0219169083151502179055506001600460007368347d674eed20d68e91e1dd7d757251f463ab0e73ffffffffffffffffffffffffffffffffffffffff1673ffffffffffffffffffffffffffffffffffffffff16815260200190815260200160002060006101000a81548160ff0219169083151502179055506001600460007310a15d942e5b14444143708fe0bb336d53d539d773ffffffffffffffffffffffffffffffffffffffff1673ffffffffffffffffffffffffffffffffffffffff16815260200190815260200160002060006101000a81548160ff021916908315150217905550600160046000737f201eb09b8a393e5b88b10d1a85973caa265e8073ffffffffffffffffffffffffffffffffffffffff1673ffffffffffffffffffffffffffffffffffffffff16815260200190815260200160002060006101000a81548160ff021916908315150217905550600160046000735a5be0abfe4f6213edf722f1a21370bde3ccd62373ffffffffffffffffffffffffffffffffffffffff1673ffffffffffffffffffffffffffffffffffffffff16815260200190815260200160002060006101000a81548160ff02191690831515021790555060016004600073139f5f4875d3d6430342ea427ac06ab70fdc358b73ffffffffffffffffffffffffffffffffffffffff1673ffffffffffffffffffffffffffffffffffffffff16815260200190815260200160002060006101000a81548160ff02191690831515021790555060016004600073ad6ee2cf80e145c90bbf6574f59879c887ea86da73ffffffffffffffffffffffffffffffffffffffff1673ffffffffffffffffffffffffffffffffffffffff16815260200190815260200160002060006101000a81548160ff02191690831515021790555060016004600073818f384f5665ab2339dcc5f3c408fe36928deb9773ffffffffffffffffffffffffffffffffffffffff1673ffffffffffffffffffffffffffffffffffffffff16815260200190815260200160002060006101000a81548160ff0219169083151502179055506001600460007327fc0726a44e93feabb1168fcf9a511111db502a73ffffffffffffffffffffffffffffffffffffffff1673ffffffffffffffffffffffffffffffffffffffff16815260200190815260200160002060006101000a81548160ff02191690831515021790555060016004600073258fccca835b2f2618fe76559f72fa1ac25856f573ffffffffffffffffffffffffffffffffffffffff1673ffffffffffffffffffffffffffffffffffffffff16815260200190815260200160002060006101000a81548160ff02191690831515021790555060016004600073541375a9c72eba83780b32bfdb261bb07ba2091173ffffffffffffffffffffffffffffffffffffffff1673ffffffffffffffffffffffffffffffffffffffff16815260200190815260200160002060006101000a81548160ff021916908315150217905550600160046000735881c2897d365d60afcccec19a3b27c474bb09db73ffffffffffffffffffffffffffffffffffffffff1673ffffffffffffffffffffffffffffffffffffffff16815260200190815260200160002060006101000a81548160ff02191690831515021790555060016004600073fb145651542c239bc7b7c2d559c4255ea3245c3f73ffffffffffffffffffffffffffffffffffffffff1673ffffffffffffffffffffffffffffffffffffffff16815260200190815260200160002060006101000a81548160ff02191690831515021790555060016004600073c648cfbbe0031419703c3c0691b00df15dc04ce173ffffffffffffffffffffffffffffffffffffffff1673ffffffffffffffffffffffffffffffffffffffff16815260200190815260200160002060006101000a81548160ff021916908315150217905550600160046000734f35cbe7f49ea42c2a5bbbf5c338dc032e5caafc73ffffffffffffffffffffffffffffffffffffffff1673ffffffffffffffffffffffffffffffffffffffff16815260200190815260200160002060006101000a81548160ff021916908315150217905550600160046000738c88c62b073e71ca55e575d21d302179fae3855e73ffffffffffffffffffffffffffffffffffffffff1673ffffffffffffffffffffffffffffffffffffffff16815260200190815260200160002060006101000a81548160ff021916908315150217905550600160046000737a743cf29179e51aed26253abdcd680880142fd573ffffffffffffffffffffffffffffffffffffffff1673ffffffffffffffffffffffffffffffffffffffff16815260200190815260200160002060006101000a81548160ff02191690831515021790555060016004600073c57ad720211a387926bce96baf67b8eb7134037273ffffffffffffffffffffffffffffffffffffffff1673ffffffffffffffffffffffffffffffffffffffff16815260200190815260200160002060006101000a81548160ff02191690831515021790555060016004600073dbc48c88cc095c3246097f2d6346f31f94004a4773ffffffffffffffffffffffffffffffffffffffff1673ffffffffffffffffffffffffffffffffffffffff16815260200190815260200160002060006101000a81548160ff021916908315150217905550600160046000739324391c41916b34117b17f4a0646033429ec76273ffffffffffffffffffffffffffffffffffffffff1673ffffffffffffffffffffffffffffffffffffffff16815260200190815260200160002060006101000a81548160ff02191690831515021790555060016004600073691b3f000c40e7ce0a64a5b690a0728695a5104873ffffffffffffffffffffffffffffffffffffffff1673ffffffffffffffffffffffffffffffffffffffff16815260200190815260200160002060006101000a81548160ff021916908315150217905550600160046000733dc6935e43aa324c019f631d4b787178d5d8f3c573ffffffffffffffffffffffffffffffffffffffff1673ffffffffffffffffffffffffffffffffffffffff16815260200190815260200160002060006101000a81548160ff0219169083151502179055506001600460007314471baa25f4bada569eadf57688de5cbba7353873ffffffffffffffffffffffffffffffffffffffff1673ffffffffffffffffffffffffffffffffffffffff16815260200190815260200160002060006101000a81548160ff02191690831515021790555060016004600073f0c86c8093ccd36d92b2087c0e770e8663234c6773ffffffffffffffffffffffffffffffffffffffff1673ffffffffffffffffffffffffffffffffffffffff16815260200190815260200160002060006101000a81548160ff021916908315150217905550600160046000731688ce5b3d2d0599a5d6d069b80b210e1abb9e6373ffffffffffffffffffffffffffffffffffffffff1673ffffffffffffffffffffffffffffffffffffffff16815260200190815260200160002060006101000a81548160ff0219169083151502179055506001600460007394f15de12d39d52281c06d8aea7907b3182ae30673ffffffffffffffffffffffffffffffffffffffff1673ffffffffffffffffffffffffffffffffffffffff16815260200190815260200160002060006101000a81548160ff021916908315150217905550600160046000737abb45828166ee4e38ec8603f50cb455b7397a6673ffffffffffffffffffffffffffffffffffffffff1673ffffffffffffffffffffffffffffffffffffffff16815260200190815260200160002060006101000a81548160ff02191690831515021790555060016004600073c5ed347a388a248a44e6b46ac310faebb5e8633973ffffffffffffffffffffffffffffffffffffffff1673ffffffffffffffffffffffffffffffffffffffff16815260200190815260200160002060006101000a81548160ff021916908315150217905550600160046000734e23edf964d7bdc5e7bcc8d06e99f749b6b316d673ffffffffffffffffffffffffffffffffffffffff1673ffffffffffffffffffffffffffffffffffffffff16815260200190815260200160002060006101000a81548160ff02191690831515021790555060016004600073399a8d43c0e7f99a00990b3755e1cebf5e5ae6a573ffffffffffffffffffffffffffffffffffffffff1673ffffffffffffffffffffffffffffffffffffffff16815260200190815260200160002060006101000a81548160ff02191690831515021790555060016004600073b5990aade53b368013190ce00a307fbb6b64bc2473ffffffffffffffffffffffffffffffffffffffff1673ffffffffffffffffffffffffffffffffffffffff16815260200190815260200160002060006101000a81548160ff0219169083151502179055506001600460007313edb41a073c6d146665cb98b469c21038abb7f873ffffffffffffffffffffffffffffffffffffffff1673ffffffffffffffffffffffffffffffffffffffff16815260200190815260200160002060006101000a81548160ff02191690831515021790555060016004600073645793a1eb0a06971b2e7a64c34a23004a93d42c73ffffffffffffffffffffffffffffffffffffffff1673ffffffffffffffffffffffffffffffffffffffff16815260200190815260200160002060006101000a81548160ff02191690831515021790555060016004600073def6a625deb6a2444772a3cb8ff26801d4a1bcd773ffffffffffffffffffffffffffffffffffffffff1673ffffffffffffffffffffffffffffffffffffffff16815260200190815260200160002060006101000a81548160ff021916908315150217905550600160046000730b5911181a5c95f8dc8918c3969b2ccf1f2a903e73ffffffffffffffffffffffffffffffffffffffff1673ffffffffffffffffffffffffffffffffffffffff16815260200190815260200160002060006101000a81548160ff02191690831515021790555060016004600073e673c710711a710cef01a9877e7f9fb972307f0873ffffffffffffffffffffffffffffffffffffffff1673ffffffffffffffffffffffffffffffffffffffff16815260200190815260200160002060006101000a81548160ff0219169083151502179055506001600460007379a4b56d5cd40c55c1352ea06a98b8f88e9ba99773ffffffffffffffffffffffffffffffffffffffff1673ffffffffffffffffffffffffffffffffffffffff16815260200190815260200160002060006101000a81548160ff0219169083151502179055506001600460007324b339e49cad0e50222018b7d95933df194d287b73ffffffffffffffffffffffffffffffffffffffff1673ffffffffffffffffffffffffffffffffffffffff16815260200190815260200160002060006101000a81548160ff02191690831515021790555062001e77565b60026000815480929190600101919050555060405180606001604052806002548152602001828152602001600081525060016000600254815260200190815260200160002060008201518160000155602082015181600101908051906020019062001db792919062001dc8565b506040820151816002015590505050565b828054600181600116156101000203166002900490600052602060002090601f016020900481019282601f1062001e0b57805160ff191683800117855562001e3c565b8280016001018555821562001e3c579182015b8281111562001e3b57825182559160200191906001019062001e1e565b5b50905062001e4b919062001e4f565b5090565b62001e7491905b8082111562001e7057600081600090555060010162001e56565b5090565b90565b6107938062001e876000396000f3fe608060405234801561001057600080fd5b506004361061007d5760003560e01c80634dadf7d91161005b5780634dadf7d91461019d57806398e2abdd146101cb5780639b19251a146101e9578063ca48ec6f146102455761007d565b8063275474c6146100825780633effeb08146100de57806340c304c814610193575b600080fd5b6100c46004803603602081101561009857600080fd5b81019080803573ffffffffffffffffffffffffffffffffffffffff16906020019092919050505061029d565b604051808215151515815260200191505060405180910390f35b61010a600480360360208110156100f457600080fd5b81019080803590602001909291905050506102bd565b6040518084815260200180602001838152602001828103825284818151815260200191508051906020019080838360005b8381101561015657808201518184015260208101905061013b565b50505050905090810190601f1680156101835780820380516001836020036101000a031916815260200191505b5094505050505060405180910390f35b61019b61037f565b005b6101c9600480360360208110156101b357600080fd5b81019080803590602001909291905050506104ff565b005b6101d3610720565b6040518082815260200191505060405180910390f35b61022b600480360360208110156101ff57600080fd5b81019080803573ffffffffffffffffffffffffffffffffffffffff169060200190929190505050610726565b604051808215151515815260200191505060405180910390f35b6102876004803603602081101561025b57600080fd5b81019080803573ffffffffffffffffffffffffffffffffffffffff169060200190929190505050610746565b6040518082815260200191505060405180910390f35b60006020528060005260406000206000915054906101000a900460ff1681565b6001602052806000526040600020600091509050806000015490806001018054600181600116156101000203166002900480601f01602080910402602001604051908101604052809291908181526020018280546001816001161561010002031660029004801561036f5780601f106103445761010080835404028352916020019161036f565b820191906000526020600020905b81548152906001019060200180831161035257829003601f168201915b5050505050908060020154905083565b6000803373ffffffffffffffffffffffffffffffffffffffff1673ffffffffffffffffffffffffffffffffffffffff16815260200190815260200160002060009054906101000a900460ff166103d457600080fd5b60016000600360003373ffffffffffffffffffffffffffffffffffffffff1673ffffffffffffffffffffffffffffffffffffffff168152602001908152602001600020548152602001908152602001600020600201600081548092919060019003919050555060008060003373ffffffffffffffffffffffffffffffffffffffff1673ffffffffffffffffffffffffffffffffffffffff16815260200190815260200160002060006101000a81548160ff021916908315150217905550600360003373ffffffffffffffffffffffffffffffffffffffff1673ffffffffffffffffffffffffffffffffffffffff168152602001908152602001600020547fa769df9172b9ca3053318f2f309190d9a460317af366661f3534a0bb1d95262860405160405180910390a2565b600460003373ffffffffffffffffffffffffffffffffffffffff1673ffffffffffffffffffffffffffffffffffffffff16815260200190815260200160002060009054906101000a900460ff166105be576040517f08c379a00000000000000000000000000000000000000000000000000000000081526004018080602001828103825260168152602001807f4e6f7420617574686f72697a656420746f20766f74650000000000000000000081525060200191505060405180910390fd5b6000803373ffffffffffffffffffffffffffffffffffffffff1673ffffffffffffffffffffffffffffffffffffffff16815260200190815260200160002060009054906101000a900460ff161561061457600080fd5b60008111801561062657506002548111155b61062f57600080fd5b60016000803373ffffffffffffffffffffffffffffffffffffffff1673ffffffffffffffffffffffffffffffffffffffff16815260200190815260200160002060006101000a81548160ff02191690831515021790555080600360003373ffffffffffffffffffffffffffffffffffffffff1673ffffffffffffffffffffffffffffffffffffffff168152602001908152602001600020819055506001600082815260200190815260200160002060020160008154809291906001019190505550807f611659992b2ba24f2d65288a3a047fd1c3e38eaaf2cad2b0a0d2322b226b9b9360405160405180910390a250565b60025481565b60046020528060005260406000206000915054906101000a900460ff1681565b6003602052806000526040600020600091509050548156fea265627a7a723158202d42570f3a1c8db9e7d8f2bcec27707979b73505f72466511c546a5180ef4db164736f6c6343000510003247726f75702051202d2053706f727420537562736372697074696f6e204461707047726f75702047202d2041766f6964696e672053656c66697368204d696e696e6720766961205472616e73616374696f6e20466565204f7074696d697a6174696f6e",
  "source": "// SPDX-License-Identifier: MIT\npragma solidity >=0.4.22 <0.8.0;\n\ncontract Election1 {\n    // Model a Candidate\n    struct Candidate1 {\n        uint id1;\n        string name1;\n        uint voteCount1;\n    }\n\n    // Store accounts that have voted\n    mapping(address => bool) public voters1;\n    // Store Candidates\n    // Fetch Candidate\n    mapping(uint => Candidate1) public candidates1;\n    // Store Candidates Count\n    uint public candidatesCount1;\n\n    // Store which candidate each voter voted for\n    mapping(address => uint) public voterToCandidate1;\n\n    // Whitelist of addresses allowed to vote\n    mapping(address => bool) public whitelist;\n\n    // voted event\n    event votedEvent1 (\n        uint indexed _candidateId1\n    );\n\n    // revocated event\n    event revocatedEvent1 (\n        uint indexed _candidateId1\n    );\n\n    constructor() public {\n        // Addcandiates\n\n        addCandidate(\"Group A1 - This Voting Dapp\");\n        addCandidate(\"Group A2 - Vatican Voting\");\n        addCandidate(\"Group B - Self-Tallying Voting\");\n        addCandidate(\"Group C - BYOB\");\n        addCandidate(\"Group E - Fair Leader Election\");\n        addCandidate(\"Group F - Smart Contract\");\n        addCandidate(\"Group G - Avoiding Selfish Mining via Transaction Fee Optimization\");\n        addCandidate(\"Group H - Nullifiers\");\n        addCandidate(\"Group I - Wash Trading\");\n        addCandidate(\"Group J - BYOB\");\n        addCandidate(\"Group K - Folding Relays\");\n        addCandidate(\"Group L\");\n        addCandidate(\"Group M - Policy Enforcement\");\n        addCandidate(\"Group P - Policy Enforcement\");\n        addCandidate(\"Group Q - Sport Subscription Dapp\");\n\n        // Setup whitelist\n        whitelist[0x7B46ace25DCBfAE5A634FE0091c810b0F5142305] = true;\n        whitelist[0x48E731732dC403B2B8d74FFb12bE90565186E688] = true;\n        whitelist[0x818254FA09c116494fba746e6d2DA31E9652Fc20] = true;\n        whitelist[0x05AcF2cB75B4Cb6e550A9bcedC39D45e867af499] = true;\n        whitelist[0xD24a9aDaf18C1F75345A6f22A9CF57eCD9b460CD] = true;\n        whitelist[0x3Bd8e52bA4c157cf765cb90151CfD0dD3dce8439] = true;\n        whitelist[0xE2799E51870c327B9cFaDBF5faa19F240785f1C9] = true;\n        whitelist[0xA8ae7D04271dE45E706c37aa2c2Ea1C38AdE62aA] = true;\n        whitelist[0x6473C0e100B830723902D43b6b9AA8628C58b4E4] = true;\n        whitelist[0x1A0a0959cB7782FD6E9a1F21294eC6fd689951C4] = true;\n        whitelist[0xa3d4a87e6E685d4D6042B33EAc295338D1e1B64f] = true;\n        whitelist[0x35D7C70211a2dbfe07f68b24fE5A1A75a69e2334] = true;\n        whitelist[0x27382144bd98101B065044f7cB93e3d809066CF2] = true;\n        whitelist[0x7D18E332604d6e307CeB3Be24Aa3D28438cb1459] = true;\n        whitelist[0x324f99A4a5465a87DB6fbe0Cc7431174036FC93C] = true;\n        whitelist[0x5Eab17CF56Fe6Ae21093fE793b7B39db5869AcD9] = true;\n        whitelist[0x555e410EbB474fd3e49020e93e5a1Bc95c3c496b] = true;\n        whitelist[0x3BCebDaBae6356f7018D41e442F799840242Df53] = true;\n        whitelist[0xbc759561e06832fDC239c924f92ef919BE38aD19] = true;\n        whitelist[0x7Ce929D2695D53dB3C7dAfb93e5455c8111FcB79] = true;\n        whitelist[0x319DbE2b29591fdd4CABcFEF699ce438cdF1EB3e] = true;\n        whitelist[0xa51a8FA9613E11Eca2a2B9d4E1AB32325A1d69fC] = true;\n        whitelist[0xf05eB5588CaB1Cb86c60c30E71860E5969c88d0D] = true;\n        whitelist[0x68347D674eeD20d68E91E1Dd7d757251f463Ab0e] = true;\n        whitelist[0x10a15D942e5b14444143708FE0Bb336D53D539D7] = true;\n        whitelist[0x7F201Eb09B8a393E5B88B10d1A85973caA265e80] = true;\n        whitelist[0x5A5be0ABFE4F6213Edf722f1a21370Bde3ccd623] = true;\n        whitelist[0x139f5f4875d3d6430342EA427AC06AB70fDc358B] = true;\n        whitelist[0xAd6eE2cf80e145c90BBF6574f59879C887eA86dA] = true;\n        whitelist[0x818f384F5665aB2339DcC5F3c408fE36928DEB97] = true;\n        whitelist[0x27fC0726a44e93fEAbB1168FCf9A511111db502a] = true;\n        whitelist[0x258fCcca835b2f2618FE76559f72FA1Ac25856f5] = true;\n        whitelist[0x541375A9c72eBa83780B32bFDb261BB07bA20911] = true;\n        whitelist[0x5881C2897d365D60AfCCCec19a3B27C474bB09db] = true;\n        whitelist[0xfb145651542c239bC7b7c2D559c4255Ea3245c3f] = true;\n        whitelist[0xC648CfBbE0031419703C3C0691B00DF15Dc04Ce1] = true;\n        whitelist[0x4F35cBE7F49EA42C2A5bBBf5C338Dc032E5CaAfC] = true;\n        whitelist[0x8c88c62b073E71ca55e575d21d302179Fae3855E] = true;\n        whitelist[0x7a743cF29179E51AEd26253ABdcd680880142Fd5] = true;\n        whitelist[0xC57Ad720211A387926bcE96baF67b8eb71340372] = true;\n        whitelist[0xdbC48c88cC095c3246097f2d6346f31F94004A47] = true;\n        whitelist[0x9324391c41916b34117B17f4a0646033429Ec762] = true;\n        whitelist[0x691B3F000c40E7CE0a64A5B690A0728695a51048] = true;\n        whitelist[0x3dc6935e43Aa324c019F631d4B787178d5D8F3C5] = true;\n        whitelist[0x14471bAA25f4bAda569Eadf57688DE5CbBa73538] = true;\n        whitelist[0xf0c86C8093CCD36D92B2087c0E770e8663234c67] = true;\n        whitelist[0x1688Ce5B3D2d0599A5D6d069B80b210e1AbB9E63] = true;\n        whitelist[0x94F15dE12D39D52281C06d8Aea7907B3182ae306] = true;\n        whitelist[0x7abB45828166Ee4e38eC8603f50cb455b7397A66] = true;\n        whitelist[0xc5Ed347a388A248A44E6B46aC310FAEBB5e86339] = true;\n        whitelist[0x4E23edF964d7BDc5E7bcc8d06E99F749b6b316D6] = true;\n        whitelist[0x399A8D43c0E7F99a00990B3755e1CeBF5e5AE6a5] = true;\n        whitelist[0xb5990aadE53B368013190CE00A307FBb6b64Bc24] = true;\n        whitelist[0x13EDB41A073C6D146665cb98B469c21038abB7F8] = true;\n        whitelist[0x645793A1eB0a06971b2e7a64C34A23004A93D42c] = true;\n        whitelist[0xDEf6a625deb6A2444772a3cb8fF26801D4A1bCd7] = true;\n        whitelist[0x0B5911181a5C95f8DC8918C3969B2CCf1F2a903E] = true;\n        whitelist[0xe673C710711a710Cef01a9877e7f9Fb972307f08] = true;\n        whitelist[0x79a4B56D5CD40c55c1352EA06A98b8F88E9bA997] = true;\n        whitelist[0x24b339e49Cad0E50222018B7D95933Df194D287b] = true;\n    }\n\n    function addCandidate (string memory _name1) private {\n        candidatesCount1 ++;\n        candidates1[candidatesCount1] = Candidate1(candidatesCount1, _name1, 0);\n    }\n\n    function vote1 (uint _candidateId1) public {\n        // require that they are in the whitelist\n        require(whitelist[msg.sender], \"Not authorized to vote\");\n\n        // require that they haven't voted before\n        require(!voters1[msg.sender]);\n\n        // require a valid candidate\n        require(_candidateId1 > 0 && _candidateId1 <= candidatesCount1);\n\n        // record that voter has voted\n        voters1[msg.sender] = true;\n\n        // store the vote\n        voterToCandidate1[msg.sender] = _candidateId1;\n\n        // update candidate vote Count\n        candidates1[_candidateId1].voteCount1 ++;\n\n        // trigger voted event\n        emit votedEvent1(_candidateId1);\n    }\n\n    function revokeVote1 () public {\n        // require that they have voted before\n        require(voters1[msg.sender]);\n\n        // update candidate vote Count\n        candidates1[voterToCandidate1[msg.sender]].voteCount1 --;\n\n        // record that voter has voted\n        voters1[msg.sender] = false;\n\n        // trigger voted event\n        emit revocatedEvent1(voterToCandidate1[msg.sender]);\n    }\n}\n",
  "sourcePath": "/home/sonak/voting/blockchain-voting2/contracts/Election1.sol",
  "compiler": {
    "name": "solc",
    "version": "0.5.16+commit.9c3226ce.Emscripten.clang"
  },
  "schemaVersion": "3.4.16",
  "updatedAt": "2024-07-12T15:27:16.185Z",
  "networkType": "ethereum",
  "devdoc": {
    "methods": {}
  },
  "userdoc": {
    "methods": {}
  }
}