{
  "contractName": "Election",
  "abi": [
    {
      "inputs": [],
      "payable": false,
      "stateMutability": "nonpayable",
      "type": "constructor"
    },
    {
      "anonymous": false,
      "inputs": [
        {
          "indexed": true,
          "internalType": "uint256",
          "name": "_candidateId",
          "type": "uint256"
        }
      ],
      "name": "revocatedEvent",
      "type": "event"
    },
    {
      "anonymous": false,
      "inputs": [
        {
          "indexed": true,
          "internalType": "uint256",
          "name": "_candidateId",
          "type": "uint256"
        }
      ],
      "name": "votedEvent",
      "type": "event"
    },
    {
      "constant": true,
      "inputs": [
        {
          "internalType": "uint256",
          "name": "",
          "type": "uint256"
        }
      ],
      "name": "candidates",
      "outputs": [
        {
          "internalType": "uint256",
          "name": "id",
          "type": "uint256"
        },
        {
          "internalType": "string",
          "name": "name",
          "type": "string"
        },
        {
          "internalType": "uint256",
          "name": "voteCount",
          "type": "uint256"
        }
      ],
      "payable": false,
      "stateMutability": "view",
      "type": "function"
    },
    {
      "constant": true,
      "inputs": [],
      "name": "candidatesCount",
      "outputs": [
        {
          "internalType": "uint256",
          "name": "",
          "type": "uint256"
        }
      ],
      "payable": false,
      "stateMutability": "view",
      "type": "function"
    },
    {
      "constant": true,
      "inputs": [
        {
          "internalType": "address",
          "name": "",
          "type": "address"
        }
      ],
      "name": "voterToCandidate",
      "outputs": [
        {
          "internalType": "uint256",
          "name": "",
          "type": "uint256"
        }
      ],
      "payable": false,
      "stateMutability": "view",
      "type": "function"
    },
    {
      "constant": true,
      "inputs": [
        {
          "internalType": "address",
          "name": "",
          "type": "address"
        }
      ],
      "name": "voters",
      "outputs": [
        {
          "internalType": "bool",
          "name": "",
          "type": "bool"
        }
      ],
      "payable": false,
      "stateMutability": "view",
      "type": "function"
    },
    {
      "constant": true,
      "inputs": [
        {
          "internalType": "address",
          "name": "",
          "type": "address"
        }
      ],
      "name": "whitelist",
      "outputs": [
        {
          "internalType": "bool",
          "name": "",
          "type": "bool"
        }
      ],
      "payable": false,
      "stateMutability": "view",
      "type": "function"
    },
    {
      "constant": false,
      "inputs": [
        {
          "internalType": "uint256",
          "name": "_candidateId",
          "type": "uint256"
        }
      ],
      "name": "vote",
      "outputs": [],
      "payable": false,
      "stateMutability": "nonpayable",
      "type": "function"
    },
    {
      "constant": false,
      "inputs": [],
      "name": "revokeVote",
      "outputs": [],
      "payable": false,
      "stateMutability": "nonpayable",
      "type": "function"
    }
  ],
  "bytecode": "0x60806040523480156200001157600080fd5b506200003c604051806060016040528060258152602001620010a1602591396200074860201b60201c565b620000666040518060600160405280602a815260200162001018602a91396200074860201b60201c565b620000ac6040518060400160405280601481526020017f53656c662d54616c6c79696e6720566f74696e670000000000000000000000008152506200074860201b60201c565b620000f26040518060400160405280601981526020017f4275696c6420796f7572206f776e20426c6f636b636861696e000000000000008152506200074860201b60201c565b620001386040518060400160405280601481526020017f46616972204c656164657220456c656374696f6e0000000000000000000000008152506200074860201b60201c565b6200017e6040518060400160405280601b81526020017f536d61727420636f6e747261637420766572696669636174696f6e00000000008152506200074860201b60201c565b620001a860405180606001604052806038815260200162001069603891396200074860201b60201c565b620001ee6040518060400160405280600a81526020017f4e756c6c696669657273000000000000000000000000000000000000000000008152506200074860201b60201c565b620002346040518060400160405280600c81526020017f576173682054726164696e6700000000000000000000000000000000000000008152506200074860201b60201c565b6200027a6040518060400160405280601981526020017f4275696c6420796f7572206f776e20426c6f636b636861696e000000000000008152506200074860201b60201c565b620002c06040518060400160405280600e81526020017f466f6c64696e672052656c6179730000000000000000000000000000000000008152506200074860201b60201c565b620003066040518060400160405280601481526020017f506f6c69637920456e666f7263656d656e7420310000000000000000000000008152506200074860201b60201c565b6200033060405180606001604052806027815260200162001042602791396200074860201b60201c565b620003766040518060400160405280601481526020017f506f6c69637920456e666f7263656d656e7420320000000000000000000000008152506200074860201b60201c565b60016004600073fef203e53fb7a2749b83a9efaf4dce2a57c772af73ffffffffffffffffffffffffffffffffffffffff1673ffffffffffffffffffffffffffffffffffffffff16815260200190815260200160002060006101000a81548160ff02191690831515021790555060016004600073513f7be9b9833bda6d15de34f35943183fac8aa173ffffffffffffffffffffffffffffffffffffffff1673ffffffffffffffffffffffffffffffffffffffff16815260200190815260200160002060006101000a81548160ff02191690831515021790555060016004600073b9c355ed6bad837711c0c79532b555d6ba2a9aad73ffffffffffffffffffffffffffffffffffffffff1673ffffffffffffffffffffffffffffffffffffffff16815260200190815260200160002060006101000a81548160ff021916908315150217905550600160046000730eb8cbe6c352cd62c711c26cc60b844e17903cf873ffffffffffffffffffffffffffffffffffffffff1673ffffffffffffffffffffffffffffffffffffffff16815260200190815260200160002060006101000a81548160ff02191690831515021790555060016004600073a9201bae60091da8c28a2cc97ca7896920d0b1f773ffffffffffffffffffffffffffffffffffffffff1673ffffffffffffffffffffffffffffffffffffffff16815260200190815260200160002060006101000a81548160ff02191690831515021790555060016004600073db7bc8707eee499ff8c415a4ef543231210f175073ffffffffffffffffffffffffffffffffffffffff1673ffffffffffffffffffffffffffffffffffffffff16815260200190815260200160002060006101000a81548160ff021916908315150217905550600160046000738776049d5a061b5b88477033e090aae4d5a7c9b173ffffffffffffffffffffffffffffffffffffffff1673ffffffffffffffffffffffffffffffffffffffff16815260200190815260200160002060006101000a81548160ff0219169083151502179055506001600460007383c9e2f7ca8c2e09cfec76754943f7f12b5d04e973ffffffffffffffffffffffffffffffffffffffff1673ffffffffffffffffffffffffffffffffffffffff16815260200190815260200160002060006101000a81548160ff021916908315150217905550600160046000739fc7e7aa1756f53c0edb8072c0c1117b5a7a294673ffffffffffffffffffffffffffffffffffffffff1673ffffffffffffffffffffffffffffffffffffffff16815260200190815260200160002060006101000a81548160ff02191690831515021790555062000875565b600260008154809291906001019190505550604051806060016040528060025481526020018281526020016000815250600160006002548152602001908152602001600020600082015181600001556020820151816001019080519060200190620007b5929190620007c6565b506040820151816002015590505050565b828054600181600116156101000203166002900490600052602060002090601f016020900481019282601f106200080957805160ff19168380011785556200083a565b828001600101855582156200083a579182015b82811115620008395782518255916020019190600101906200081c565b5b5090506200084991906200084d565b5090565b6200087291905b808211156200086e57600081600090555060010162000854565b5090565b90565b61079380620008856000396000f3fe608060405234801561001057600080fd5b506004361061007d5760003560e01c806343c14b221161005b57806343c14b22146101835780639b19251a1461018d578063a3ec138d146101e9578063a567dd75146102455761007d565b80630121b93f146100825780632d35a8a2146100b05780633477ee2e146100ce575b600080fd5b6100ae6004803603602081101561009857600080fd5b810190808035906020019092919050505061029d565b005b6100b86104be565b6040518082815260200191505060405180910390f35b6100fa600480360360208110156100e457600080fd5b81019080803590602001909291905050506104c4565b6040518084815260200180602001838152602001828103825284818151815260200191508051906020019080838360005b8381101561014657808201518184015260208101905061012b565b50505050905090810190601f1680156101735780820380516001836020036101000a031916815260200191505b5094505050505060405180910390f35b61018b610586565b005b6101cf600480360360208110156101a357600080fd5b81019080803573ffffffffffffffffffffffffffffffffffffffff169060200190929190505050610706565b604051808215151515815260200191505060405180910390f35b61022b600480360360208110156101ff57600080fd5b81019080803573ffffffffffffffffffffffffffffffffffffffff169060200190929190505050610726565b604051808215151515815260200191505060405180910390f35b6102876004803603602081101561025b57600080fd5b81019080803573ffffffffffffffffffffffffffffffffffffffff169060200190929190505050610746565b6040518082815260200191505060405180910390f35b600460003373ffffffffffffffffffffffffffffffffffffffff1673ffffffffffffffffffffffffffffffffffffffff16815260200190815260200160002060009054906101000a900460ff1661035c576040517f08c379a00000000000000000000000000000000000000000000000000000000081526004018080602001828103825260168152602001807f4e6f7420617574686f72697a656420746f20766f74650000000000000000000081525060200191505060405180910390fd5b6000803373ffffffffffffffffffffffffffffffffffffffff1673ffffffffffffffffffffffffffffffffffffffff16815260200190815260200160002060009054906101000a900460ff16156103b257600080fd5b6000811180156103c457506002548111155b6103cd57600080fd5b60016000803373ffffffffffffffffffffffffffffffffffffffff1673ffffffffffffffffffffffffffffffffffffffff16815260200190815260200160002060006101000a81548160ff02191690831515021790555080600360003373ffffffffffffffffffffffffffffffffffffffff1673ffffffffffffffffffffffffffffffffffffffff168152602001908152602001600020819055506001600082815260200190815260200160002060020160008154809291906001019190505550807ffff3c900d938d21d0990d786e819f29b8d05c1ef587b462b939609625b684b1660405160405180910390a250565b60025481565b6001602052806000526040600020600091509050806000015490806001018054600181600116156101000203166002900480601f0160208091040260200160405190810160405280929190818152602001828054600181600116156101000203166002900480156105765780601f1061054b57610100808354040283529160200191610576565b820191906000526020600020905b81548152906001019060200180831161055957829003601f168201915b5050505050908060020154905083565b6000803373ffffffffffffffffffffffffffffffffffffffff1673ffffffffffffffffffffffffffffffffffffffff16815260200190815260200160002060009054906101000a900460ff166105db57600080fd5b60016000600360003373ffffffffffffffffffffffffffffffffffffffff1673ffffffffffffffffffffffffffffffffffffffff168152602001908152602001600020548152602001908152602001600020600201600081548092919060019003919050555060008060003373ffffffffffffffffffffffffffffffffffffffff1673ffffffffffffffffffffffffffffffffffffffff16815260200190815260200160002060006101000a81548160ff021916908315150217905550600360003373ffffffffffffffffffffffffffffffffffffffff1673ffffffffffffffffffffffffffffffffffffffff168152602001908152602001600020547fbe082eee4cc5078f0fc6e1b654698341f23251218068962c10f3b5501b2d7a7c60405160405180910390a2565b60046020528060005260406000206000915054906101000a900460ff1681565b60006020528060005260406000206000915054906101000a900460ff1681565b6003602052806000526040600020600091509050548156fea265627a7a72315820be02fa3532b02c05f45cdd5d7ba2487dfe51cc007f3f65d6fedbd63526bad33c64736f6c63430005100032426573742050726573656e746174696f6e20566f74696e6720322028546865206f74686572206f6e6529446563656e7472616c697a65642052656e74696e67202843686f6f736520796f7572206f776e2941766f6964696e672053656c66697368204d696e696e6720766961205472616e73616374696f6e20466565204f7074696d697a6174696f6e426573742050726573656e746174696f6e20566f74696e672031202854686973206f6e6529",
  "source": "// SPDX-License-Identifier: MIT\r\npragma solidity >=0.4.22 <0.8.0;\r\n\r\ncontract Election {\r\n    // Model a Candidate\r\n    struct Candidate {\r\n        uint id;\r\n        string name;\r\n        uint voteCount;\r\n    }\r\n\r\n    // Store accounts that have voted\r\n    mapping(address => bool) public voters;\r\n    // Store Candidates\r\n    // Fetch Candidate\r\n    mapping(uint => Candidate) public candidates;\r\n    // Store Candidates Count\r\n    uint public candidatesCount;\r\n\r\n    // Store which candidate each voter voted for\r\n    mapping(address => uint) public voterToCandidate;\r\n\r\n    // Whitelist of addresses allowed to vote\r\n    mapping(address => bool) public whitelist;\r\n\r\n    // voted event\r\n    event votedEvent (\r\n        uint indexed _candidateId\r\n    );\r\n\r\n    // revocated event\r\n    event revocatedEvent (\r\n        uint indexed _candidateId\r\n    );\r\n\r\n    constructor() public {\r\n        // Addcandiates\r\n        addCandidate(\"Best Presentation Voting 1 (This one)\");\r\n        addCandidate(\"Best Presentation Voting 2 (The other one)\");\r\n        addCandidate(\"Self-Tallying Voting\");\r\n        addCandidate(\"Build your own Blockchain\");\r\n        addCandidate(\"Fair Leader Election\");\r\n        addCandidate(\"Smart contract verification\");\r\n        addCandidate(\"Avoiding Selfish Mining via Transaction Fee Optimization\");\r\n        addCandidate(\"Nullifiers\");\r\n        addCandidate(\"Wash Trading\");\r\n        addCandidate(\"Build your own Blockchain\");\r\n        addCandidate(\"Folding Relays\");\r\n        addCandidate(\"Policy Enforcement 1\");\r\n        addCandidate(\"Decentralized Renting (Choose your own)\");\r\n        addCandidate(\"Policy Enforcement 2\");\r\n\r\n        // Setup whitelist\r\n        whitelist[0xfef203e53fb7a2749B83A9eFAf4DCE2A57c772Af] = true;\r\n        whitelist[0x513f7Be9B9833bDa6D15De34f35943183FAc8aA1] = true;\r\n        whitelist[0xb9C355ED6BAd837711C0c79532B555D6BA2A9AAD] = true;\r\n        whitelist[0x0Eb8CbE6c352Cd62C711c26cC60b844E17903CF8] = true;\r\n        whitelist[0xA9201bAE60091Da8C28A2cC97cA7896920D0B1f7] = true;\r\n        whitelist[0xDB7Bc8707eEE499ff8c415a4ef543231210F1750] = true;\r\n        whitelist[0x8776049D5a061b5b88477033E090Aae4d5a7C9b1] = true;\r\n        whitelist[0x83c9e2f7ca8c2e09Cfec76754943F7F12B5D04E9] = true;\r\n        whitelist[0x9Fc7E7aA1756F53C0edb8072C0c1117B5a7a2946] = true;\r\n        //whitelist[0x2d73221bc78378686a6a9BAEa3E1bBC581311D56] = true;\r\n    }\r\n\r\n    function addCandidate (string memory _name) private {\r\n        candidatesCount ++;\r\n        candidates[candidatesCount] = Candidate(candidatesCount, _name, 0);\r\n    }\r\n\r\n    function vote (uint _candidateId) public {\r\n        // require that they are in the whitelist\r\n        require(whitelist[msg.sender], \"Not authorized to vote\");\r\n\r\n        // require that they haven't voted before\r\n        require(!voters[msg.sender]);\r\n\r\n        // require a valid candidate\r\n        require(_candidateId > 0 && _candidateId <= candidatesCount);\r\n\r\n        // record that voter has voted\r\n        voters[msg.sender] = true;\r\n\r\n        // store the vote\r\n        voterToCandidate[msg.sender] = _candidateId;\r\n\r\n        // update candidate vote Count\r\n        candidates[_candidateId].voteCount ++;\r\n\r\n        // trigger voted event\r\n        emit votedEvent(_candidateId);\r\n    }\r\n\r\n    function revokeVote () public {\r\n        // require that they have voted before\r\n        require(voters[msg.sender]);\r\n\r\n        // update candidate vote Count\r\n        candidates[voterToCandidate[msg.sender]].voteCount --;\r\n\r\n        // record that voter has voted\r\n        voters[msg.sender] = false;\r\n\r\n        // trigger voted event\r\n        emit revocatedEvent(voterToCandidate[msg.sender]);\r\n    }\r\n}",
  "sourcePath": "C:\\Users\\User\\workspace\\bs6 from the ground\\election\\contracts\\Election.sol",
  "compiler": {
    "name": "solc",
    "version": "0.5.16+commit.9c3226ce.Emscripten.clang"
  },
  "schemaVersion": "3.4.16",
  "updatedAt": "2024-07-02T18:13:26.283Z",
  "networkType": "ethereum",
  "devdoc": {
    "methods": {}
  },
  "userdoc": {
    "methods": {}
  }
}